:020000040800F2
:100000006808002091010008990100089B01000880
:100010009D0100089F010008A101000800000000E8
:10002000000000000000000000000000A301000824
:10003000A501000800000000A7010008D911000870
:10004000AB010008AB010008AB010008AB010008E0
:10005000AB010008AB010008AB010008AB010008D0
:10006000AB010008AB010008AB010008AB010008C0
:10007000AB010008AB010008AB010008AB010008B0
:10008000AB010008AB010008AB010008AB010008A0
:10009000AB010008AB010008AB010008AB01000890
:1000A000AB010008AB010008AB010008AB01000880
:1000B000AB010008AB010008AB010008AB01000870
:1000C000AB010008AB010008AB010008AB01000860
:1000D000AB010008AB010008AB010008AB01000850
:1000E000650B0008AB010008AB01000800F002F846
:1000F00000F03EF80AA090E8000C82448344AAF184
:100100000107DA4501D100F033F8AFF2090EBAE881
:100110000F0013F0010F18BFFB1A43F0010318473B
:100120000C2000002C200000103A24BF78C878C1B1
:10013000FAD8520724BF30C830C144BF04680C60ED
:10014000704700000023002400250026103A28BF35
:1001500078C1FBD8520728BF30C148BF0B60704739
:100160001FB59DE8030000F0C3F91FBD10B510BD19
:1001700000F04CFA1146FFF7F3FF01F0F7FE00F034
:100180006AFA03B4FFF7F2FF03BC00F09BFA000029
:100190000948804709480047FEE7FEE7FEE7FEE71B
:1001A000FEE7FEE7FEE7FEE7FEE7FEE70448054957
:1001B000054A064B7047000085120008ED00000854
:1001C00068020020680800206804002068040020FD
:1001D00070B5064600F070F9056806F10B0020F0D6
:1001E0000704B4429CBF002070BD2B466A68BAB1B8
:1001F0001068A04210D304F1080188423CBF506847
:10020000586007D35168101941601168091B0160DB
:1002100058601460101D70BD13465268002AE7D163
:100220002146284600F050F90028DED170BD70B597
:100230000446051F00F040F90068002C14BF446814
:1002400070BD002C18BFAC423CBF20466468F8D398
:1002500001680A18AA4218BF456003D12A680546FA
:100260001144016028684119A1421CBF6C6070BD37
:100270006168696021680844286070BD032A40F203
:10028000308010F0030C00F0158011F8013BBCF138
:10029000020F624498BF11F801CB00F8013B38BF50
:1002A00011F8013BA2F1040298BF00F801CB38BF5E
:1002B00000F8013B11F0030300F05081083AC0F050
:1002C000088051F8043B083A51F804CBA0E8081024
:1002D000F5E7121D5CBF51F8043B40F8043BAFF357
:1002E0000080D20724BF11F8013B11F801CB48BFB1
:1002F00011F8012B24BF00F8013B00F801CB48BFE7
:1003000000F8012B7047000010B503681C1404EBC3
:1003100021449BB289B2194494FBF2F302FB1343CC
:1003200094FBF2F401EB034393FBF2F102FB113176
:1003300093FBF2F301E05B1E11440029FBDB01603B
:1003400003EB044010BD2DE9F04704464FF0FF3A9F
:1003500086B00068029060680390A0680490E0682E
:10036000019020690090656905F18040B0F1004F6F
:100370007DD83C22002102A8FFF7C6FF3C2201469F
:1003800003A8FFF7C1FF1822014604A8FFF7BCFF2E
:10039000411E40F2B55201A8FFF7B6FF0C220646F7
:1003A00068460021FFF7B0FF00EB860028443E4D71
:1003B00000267D440FE09A1A491CCDE9001202295B
:1003C00002D00C2907D104E0810704D0521C01920D
:1003D00001E0401C00960099019B6A5C9A42EADDAC
:1003E000012906D11C2B04D1810702D00221CDE9BD
:1003F0000016A0F146018B2940D20199009B0022F2
:100400000F4602E0AE5C521C31449A42FADB012BEB
:1004100002DD820700D0491E40F2B55540F26D164C
:10042000C21700EB927292106A4300F0030505FBBD
:10043000062285070A4400D1521E049D02EB4206A3
:10044000DDF80C80A94605EBC605184EC5EB051571
:10045000DDF808C008EB850535442E14ADB2C6EBB7
:100460000616C5EB0515B6000CEB850500E005E0AA
:1004700006EB154666F31F45360C03D0504606B012
:10048000BDE8F087C4E904307F1C0720521CC4E992
:10049000029792FBF0F3E4E806C800FB132084E81F
:1004A00003042846EBE70000441D0000A039CEFD00
:1004B00070477047704700000048704710000020E8
:1004C000704770477047704738B504460A460020A9
:1004D0006946AFF30080002808BF38BD0246009986
:1004E000204600F071F8012038BD012000F086B8E8
:1004F000F8B5AFF30080054600200C46102000BF81
:100500000646A819A0420DD9324669460020AFF32D
:100510000080070008BF00F071F80098A04218BFE3
:100520000546C419FFF7C8FF05600746F01D20F017
:1005300007004619284600F00AF8B44208BFF8BD83
:10054000A21B31463868BDE8F84000F03DB80021F4
:100550000160C0E9011070471020704710B5203AC3
:10056000C0F00B80B1E81850A0E81850B1E818505E
:10057000A0E81850203ABFF4F5AF5FEA027C24BF30
:10058000B1E81850A0E8185044BF18C918C0BDE819
:1005900010405FEA827C24BF51F8043B40F8043BE2
:1005A00008BF7047D20728BF31F8023B48BF11F897
:1005B000012B28BF20F8023B48BF00F8012B7047F1
:1005C0000048704708000020034640688C46002819
:1005D00018BF88423CBF03464068F8D318681844E7
:1005E000884207D00CF1030020F00700001D411ADB
:1005F000521A0146081D0A60FFF719BE10B500F037
:1006000039F8BDE8104000F02FB870477546FFF785
:10061000D7FFAE4605006946534620F007008546E1
:1006200018B020B5FFF7C2FDBDE820404FF000062E
:100630004FF000074FF000084FF0000BAC46ACE85D
:10064000C009ACE8C009ACE8C009ACE8C00921F0B9
:1006500007018D46704710B50446AFF30080204671
:10066000BDE81040FFF78DBD002801D000F02AB88A
:100670007047000010B5012805D0002103A000F04C
:1006800027F8012010BD09A1F8E70000534947529F
:10069000544D454D3A204F7574206F662068656152
:1006A00070206D656D6F7279000000003A2048651A
:1006B0006170206D656D6F727920636F72727570F5
:1006C0007465640001491820ABBEFEE726000200F5
:1006D00070B505460C460A2000E06D1C00F011F8CC
:1006E00035B128780028F8D102E0641C00F009F840
:1006F00014B120780028F8D1BDE870400A20AFF38B
:10070000008008B569468DF800000320ABBE08BD27
:10071000B0B546F20061C4F2000190F80AE0037B34
:100720000A68012442F001020A60CA6904FA0EF55F
:100730006FEA050CAA43012BCA610DD0F3B9CA6850
:1007400002EA0C02CA60C288438843EA024201EB13
:10075000CE031A6403460AE0CA682A43CA600288C4
:10076000438843EA024201EBCE031A64831D828868
:100770001B8843EA024201EBCE035A64C27A4B68FB
:10078000002A43EA050408BF03EA0C044C6003890D
:10079000012B04D03BB94A6902EA0C0302E04A6922
:1007A00042EA05034B61407B012802D1C869284316
:1007B000C861086820F001000860B0BD80B502681B
:1007C00022F002020260026842F0010202604FF66B
:1007D000FF7200BFD0F804C0531E934203D21CF036
:1007E00001021A46F6D04268D20704BF002080BD3D
:1007F00091F806C00368BCF1010F23F0800208BF26
:1008000043F08002026091F807C00368BCF1010F59
:1008100023F0400208BF43F04002026091F808C094
:100820000368BCF1010F23F0200208BF43F020024F
:10083000026091F809C00368BCF1010F23F01002B7
:1008400008BF43F01002026091F80AC00368BCF1CF
:10085000010F23F0080208BF43F00802026091F87C
:100860000BC00368BCF1010F23F0040208BF43F082
:1008700004020260CB7891F802C00A791B0691F855
:1008800005E043EA8C73098843EA024242EA0E52C9
:1008900001391143C161016821F0010101604FF686
:1008A000FF7100BF43684A1E8A4203D213F0010160
:1008B0001146F7D14068012121EA000080BD000007
:1008C000012905D000291CBF002070470C3000E032
:1008D0001030006800F003007047000010B500EB16
:1008E0000114D4F8B0C11CF004031372D4F8B0E1C1
:1008F00004F5D87C19BF4FEADE0353604FEA5E531C
:100900001360DCF80030002903F002035372D4F8BE
:10091000B43103F00F039372D4F8B4314FEA1323C8
:10092000D374D4F8B831D372D4F8B8314FEA132362
:100930001373D4F8B8314FEA13435373D4F8B83172
:100940004FEA13639373D4F8BC31D373D4F8BC313A
:100950004FEA13231374D4F8BC314FEA1343537492
:10096000D4F8BC314FEA136393744FF0100208BF00
:100970000C22815841F02001815010BD46F20061E7
:10098000C4F200010A6843F60E7342F001020A60E5
:100990000A689A430A600A6842EA00200860086808
:1009A00020F00100086070470021C0F80610418166
:1009B00040F203218180012101607047B0B50246F9
:1009C0008068400109D49068000108D49068C00094
:1009D0004FF0020058BF042002E0002000E0012098
:1009E000042808BFB0BD02EB0012D2F8803102F536
:1009F000C07E03F00103C2F8803191F808C0BCF159
:100A0000000F03D04B684CEAC30C02E00B684FEABE
:100A1000435C4B7A8C7ADEF8005043EA0C032B439C
:100A2000CEF8003004F00F038B72D2F8845125F019
:100A30000F05C2F88451D2F884512B43C2F8843197
:100A4000D1F80B30C2F88831D1F80F10C2F88C11F0
:100A5000DEF8001041F00101CEF80010B0BD00003A
:100A600080B50F2001F044F800F07F010F2001F065
:100A70004FF880BD80B50F2001F03AF800F08000FB
:100A800080BD00002DE9F04782B007460DF1280A2D
:100A900000201C4615460E469AE80007CDF80300D4
:100AA00000906A4668200021072301F0EFF89DF8C6
:100AB00000009DF802209DF801108AF8000002F065
:100AC0003F009DF8033089F8001088F800009DF879
:100AD00004009DF805102370287001F07F009DF838
:100AE00006103070397002B0BDE8F08780B5FFF7AE
:100AF000C1FF002808BF80BD022000F0F9FF00F010
:100B0000BF01022001F004F80A2000F0F1FF40F0DC
:100B100040010A2000F0FCFF0D2000F0E9FF40F04A
:100B200040010D2000F0F4FFFFF79AFF80BD0000A8
:100B300010B5002808BF10BD044600BF4FF47A70FE
:100B4000013C00F003F8002CF8D110BD40F2642104
:100B5000C2F20001086000BF0A68121A8242FBD389
:100B60007047000040F2CC00C2F200000121017089
:100B7000704700008179002940F20041C4F2010170
:100B80001FD002680B6893430B604B6893434B6024
:100B9000037943EA010CDCF800301A43CCF800205A
:100BA00002688B6893438B60CB689343CB6040793A
:100BB00010280ED1886810438860C8681043C86048
:100BC00070470279006811430A6822EA0000086051
:100BD000704708430168114301607047B0B504468F
:100BE0004FF4302000F08CF8042818BFB0BD42F25A
:100BF0001005C4F20205286840F0020028606C600D
:100C0000286840F0400028604FF4302000F078F869
:100C1000296841F6FD7211402960B0BD42F20C0016
:100C2000C4F202000168C9071CBF012070470168B7
:100C3000490744BF022070470068C0064FF0030018
:100C400058BF04207047000042F21000C4F20200B6
:100C5000016841F0800101607047000042F200012C
:100C6000C4F202010A6822F010020A600A68104306
:100C70000860704770B582B00546002001904FF4BF
:100C800000500C4600F03CF804281CD142F210063B
:100C9000C4F20206306840F0010030604FF40050AA
:100CA0002C8000F02DF8042808D1A81C0190019890
:100CB000210C01804FF4005000F022F8316841F619
:100CC000FE721140316002B070BD000042F20001BE
:100CD000C4F202010A6802F038021043086070474B
:100CE00042F2040040F22311C4F20200C4F2675140
:100CF000016048F6AB11CCF6EF510160704700007F
:100D000010B50446FFF78AFF34B100BF012803D1B4
:100D1000FFF784FF013CF9D1002C08BF052010BD6E
:100D200010B50C22082402EA810201F0FC01C4F291
:100D300001044FF00F0C51F804E00CFA02F32EEA14
:100D400003030B510B5990401843085110BD00008C
:100D50002DE9F041CA7802F00F0CD30644BF8B781E
:100D60004CEA030C09880B0621D0056800234FF0DC
:100D700001084FF00F0E002608E000BF282A08BF28
:100D800047610136082E03F104030FD008FA06F775
:100D90000F42F6D00EFA03F425EA04040CFA03F528
:100DA000482A45EA0405E9D10761EAE70560B1F59B
:100DB000807F38BFBDE8F081446800234FF4807E17
:100DC0004FF00F08002607E0282A08BF47610136C8
:100DD000082E03F1040310D00EFA06F707EA010506
:100DE000BD42F4D108FA03F5AC430CFA03F5482AE6
:100DF00044EA0504E8D10761E9E74460BDE8F08111
:100E000040F2D000C2F2000000687047028800295A
:100E100042F4806308BF22F48063038070470000BF
:100E2000828A008B60F3174202EA0100401AB0FA8E
:100E300080F04009704700000288002942F0010359
:100E400008BF22F0010303807047000002880029D8
:100E500042F4807308BF22F480730380704700005F
:100E60000288002942F4007308BF22F40073038053
:100E70007047000082B00022019200920090080F9B
:100E800001900198002821F07F40009906BF000CD6
:100E900018311431009100990968084018BF0120E9
:100EA00002B0704770B586B0044680880D4620F0C9
:100EB0003F0601A800F0B2F803994DF68360C4F232
:100EC0001B30A1FB000346EA9340A080208820F05D
:100ED000010020802A6848F2A060C0F2010082422E
:100EE0004FEA934008D85200B1FBF2F14FF6FC7282
:100EF000114208BF042125E0EB884BF6FF76B34290
:100F000004D102EB4202B1FBF2F105E019235A438E
:100F1000B1FBF2F141F480414FF49672504344F634
:100F2000D352C1F26202A0FB020208466FF31F30E7
:100F3000B0FA80F04009084348F20001CFF6FF7193
:100F40000143900901302084A18320884FF6F531B8
:100F500040F00100208020886A890840A988084361
:100F600010432080A88929890843208106B070BDDC
:100F7000008AC0B27047000041F00103002A08BF98
:100F800001F0FE03038270470182704710B5C178FB
:100F900000294EF20011CEF200011AD04EF60C528A
:100FA000CEF200021268072323EA12220F23C2F1B5
:100FB000040C23FA02F24378847890F800E003FAF4
:100FC0000CF322401A43120101EB0E0383F80023B5
:100FD00000E080310078012300F01F0203FA02F2E2
:100FE000C0F3421041F8202010BD0000002941F25A
:100FF0001C01C4F202010A680CBF22EA000010437F
:1010000008607047002941F21801C4F202010A6821
:101010000CBF22EA000010430860704710B541F28F
:101020000404C4F20204226802F00C02082A41F20D
:101030000022C0F27A021CD12368D4F800C0C3F3A6
:10104000834E5FEACC330EF1020C06D440F6001258
:10105000C0F23D020CFB02F20BE023689B0302D4BA
:101060000CFB02F205E040F60012C0F23D020CFB60
:1010700002F20260226842F21A13C2F30312C0F6AF
:1010800000039A5C0168D14041602268C2F30222E9
:101090009A5C21FA02F282602268C2F3C2229A5C50
:1010A00042F20613D140C1602268C0F60003C2F3C9
:1010B00081329A5CB1FBF2F1016110BD80B500F0A4
:1010C00001F880BD82B041F204000021C4F20200A8
:1010D0000191009150F8041C41F4803140F8041C47
:1010E00050F8041C01F40031009101990131019183
:1010F000009919B90199B1F5A06FF1D150F8041C0C
:10110000890354BF0021012100910099012936D1A2
:1011100042F20001C4F202010A6842F010020A60C1
:101120000A6822F003020A600A6842F002020A60BA
:101130000168016001680160016841F4806101603B
:10114000016821F47C110160016841F4E81101603B
:1011500050F8041C41F0807140F8041C50F8041C45
:101160008901FBD5016821F003010160016841F0AC
:1011700002010160016801F00C010829FAD102B0F6
:101180007047000080B500F045F840F20000C2F260
:10119000000000684DF68361C4F21B31A0FB010121
:1011A000880C00F005F8002000F0ACF880BD0000CD
:1011B000B0B501380024B4EB106F18BFB0BD4EF2CB
:1011C0001005CEF2000568600F2000F09BF80720A4
:1011D000AC602860B0BD000040F26420C2F20000A4
:1011E000016801310160006847F6D501C2F2E9618A
:1011F000484348F637114FEAF000C0F241018842F7
:1012000088BF704740F2D000C2F20000016801318F
:101210000160704741F20400C4F20200016801F06D
:101220000C01082941F20021C0F27A0117D10268AD
:101230000368C2F38342DB0302F1020205D440F6E5
:101240000011C0F23D01514309E003689B0301D442
:10125000514304E040F60011C0F23D01514340F219
:101260000002C2F200021160006842F20A11C0F3EB
:101270000310C0F60001085C116821FA00F010604C
:101280007047000080B541F20000C4F2020001681E
:10129000002241F0010101604168CFF6FF021140D8
:1012A000416001684FF6FF72CFF6F66211400160AF
:1012B000016821F480210160416821F4FE01416050
:1012C0004FF41F018160FFF7F9FE4EF60850CEF291
:1012D00000004FF00061016080BD000040F2C801D5
:1012E000C2F20001096840F2C402C2F20002401AD0
:1012F0004FF47A711268484390FBF2F00130C0F36A
:10130000071070474EF623510001CEF2000108701D
:101310007047000080B540F2CD00C2F2000001210C
:10132000017041F23D3149F2E030C0F60001C0F2F7
:101330000400002200F0ACFE80BD000040F2CD00B1
:10134000C2F20000002101707047000070470000E9
:101350002DE9F04F89B040F2CD00C2F200000078D4
:1013600000286AD140F29008C2F20008B8F80000E4
:10137000002862D000F01EF9B8F80010B8F822007A
:10138000012902D1B0F57A6F01D9022904D1FFF702
:10139000C1FF09B0BDE8F08FB8F82410401A80B240
:1013A00000216528ADF82010CDE90611CDE9041122
:1013B000CDE90211019140D300F0DEF901ADAE1E7E
:1013C00008F102074FF0000B002007E000980A37F1
:1013D00001300A3603280BF1050B2CD000EB8004FA
:1013E0004FF000094FF0000A009004E009F10109F4
:1013F000B9F1050FEAD037F81900B8F80210401A11
:1014000048BF404226F8190035F81400FB28EDD3F8
:101410005FFA8AF05FFA89F100F0A2FB0028E5D0BC
:101420000BEB0900012101FA09F1C0B24AEA010AF5
:1014300000F084F9DAE7FFF76DFF09B0BDE8F08F3F
:1014400070B55020FEF7C4FE0A21044600F044FDAA
:1014500001280ADB054626466E203146082200F0A8
:101460000BFB013D06F10806F6D12046FEF7DFFE34
:1014700070BD000080B540F29001C2F2000108800A
:10148000002000F077F880BD10B582B000F050F970
:1014900058B300F07DF90446800603D541F2883048
:1014A000FFF746FB200711D0002000F05BFA002078
:1014B00000F068FA41F2755140F29002C0F6000166
:1014C000C2F200024EF6602000F0E2FD00F0F4F8F7
:1014D00000F0B2FDCDE900046C46204600F024FD8A
:1014E0006E202146082200F0C7FA02B010BD0000AD
:1014F00080B5FFF7FBFA00F063F980BD70B582B0EC
:1015000040F2D405C2F20005287818BB40F29006DC
:10151000C2F200067088B16AADF80000F08C6C462B
:10152000ADF8020001916C202146082200F0A4FAD7
:10153000F06A214600906D20042200F09DFA0120FF
:1015400041F6A1712870C0F6000140F6B8300022C3
:1015500000F09EFD02B070BD80B56B2805D06A28F2
:1015600018BF80BDFFF76CFF80BDC8B2FFF782FFD8
:1015700080BD000010B540F29000C2F2000000886B
:10158000013881B2022988BF10BD4FF6F871C0F250
:10159000070101EAC001012040F20012C840C0F278
:1015A000010222FA01F400F0DDF9E0B200F0EAF9FC
:1015B00010BD000010B500F0F3F808B101200AE0FA
:1015C00000F0F6F830B100F03DF800F0010080F0D6
:1015D000030000E0002040F29004C2F200042080EA
:1015E00000F096F96080201D0F2100F03FF94FF0C8
:1015F0007A60C4F82200002004EB40018A88A38CA2
:1016000001309A4238BFA2848988628C914288BF97
:1016100061840F28F0D100F02DF8E08400F00CF880
:10162000208500F015F8608500F018F8A08500F01E
:101630001BF8E08510BD000080B50A2000F030F8EE
:1016400080BD000080B50E2000F02AF880BD0000AB
:1016500080B5262000F024F880BD000080B502206F
:1016600000F01EF880BD000080B5262000F018F8BC
:1016700080BD000080B50C2000F012F880BD000095
:1016800080B582B0014600208DF807000DF10702F9
:10169000552000F0DFFA9DF8070002B080BD000081
:1016A000B0B50446FFF7ECFF0546601CC0B2FFF77B
:1016B000E7FF40EA0520B0BD80B540F2CC00C2F2A1
:1016C00000000021017000203F2100F073F980BD6F
:1016D00010B584B0082001210124FFF793FC41F2EA
:1016E0000000C2F60200039040F60040C4F2010080
:1016F00003A9FFF72DFB01200121FFF783FC012047
:101700000C21FFF70DFB4FF4805001904FF4006067
:10171000ADF8080001A88DF80A40FFF72BFA282041
:10172000C0F2001000906846FFF730FC04B010BD16
:1017300040F2CC00C2F2000000787047F0B581B0F2
:10174000451E4CF6CD41E8B2CCF6CC41A0FB0101E0
:10175000012707EB910420468E0800F09BF806EB6A
:101760008601691AC9B207FA01F10843C1B22046DD
:1017700000F020F901B0F0BDB0B50024E5B20134AD
:10178000E0B2002100F016F9022DF7D3B0BD000041
:1017900080B5002000F07EF800F03F0080BD000022
:1017A00080B5052000F076F800F0010080BD000053
:1017B00080B5052000F06EF800F0020080BD00004A
:1017C00080B5FFF785FF0420102100F0F3F8052015
:1017D000402100F0EFF80B20192100F0EBF800F0A9
:1017E0002FF840F2C401C2F20001086000F038F89E
:1017F00040F2C801C2F20001086041F2680000F046
:10180000D1F840F68C2000F0CDF806200B2100F036
:10181000D1F807209C2100F0CDF80820502100F0DD
:10182000C9F8002000F036F810F0200108BF80BD94
:10183000002000F0BFF841F28830FFF779F980BD51
:1018400010B5502000F026F80446592000F022F888
:1018500004F00C01490041EA501000F26D1010BD77
:1018600080B5512000F016F880BD000070B50F293A
:1018700018BF70BD044600250C2600BF06EB4500CE
:10188000C0B200F02BF824F8150001350F2DF5D16A
:1018900070BD0000F0B581B0044600206D46009098
:1018A0001820AE1C03278DF800008DF8014000BF02
:1018B000182021463246022300F0E8F92846032189
:1018C00000F0F6F89DF803108842F1D13806A7F130
:1018D0000107EDD19DF8020001B0F0BD80B500F028
:1018E00035F840F2C401C2F20001096840F2C802B2
:1018F000484344F6D351C1F2620180FB0101C2F2B8
:1019000000028809126800EBD170104480B280BDDB
:1019100080B52A2000F01AF840F2C401C2F200019A
:10192000096840F2C802484344F6D3518000C1F22E
:101930006201C2F2000280FB01011268880900EB1B
:10194000D170C2EB0211084480B280BDB0B504462C
:10195000FFF7A0FF0546601CC0B2FFF79BFF40EAFF
:101960000520B0BD10B504460520FFF793FF40F0F9
:101970000101002C08BF00F0FE01052000F01AF85C
:1019800010BD000010B504460520FFF783FF40F0AE
:101990000201002C08BF00F0FD01052000F00AF84C
:1019A00010BD000080B5FFF799FC0146092000F04A
:1019B00001F880BDB0B582B0044600200190182027
:1019C0008DF8040001A88DF8061003218DF805405C
:1019D000851C00F06DF88DF80700182021462A4676
:1019E000022300F055FA02B0B0BD0000B0B588B0D7
:1019F00005AC002520460795CDE90555FEF7D4FF37
:101A000046F20040C4F200002146FEF7D7FE002057
:101A1000C0F20110CDF80E004FF45040CDE90100A6
:101A200001A8ADF80C50FEF773FE0020FEF7A6FFEC
:101A300008B0B0BDB0B546F20044C4F20004204680
:101A40000021FEF73DFF002808BFB0BD40F2680549
:101A5000C2F20005204600212A46FEF73FFF40F271
:101A60007C00C2F200000068B5F80B1000F07F00A7
:101A7000FFF772FDB0BD000010B540F27C0440F4E9
:101A8000D060C2F200040023082A28BF0822C4E95B
:101A9000000304F10B002381A272FEF7EFFB46F274
:101AA0000040C4F200002146FEF788FF10BD000090
:101AB000B0B5012919DB4FF0000C4FF0070E0022E2
:101AC00010F80C3083EA0204082300BFE5B28EEA66
:101AD0004502240658BF6A00013B1446F6D10CF1BA
:101AE000010C8C45ECD1D0B2B0BD0022D0B2B0BD5B
:101AF00080B582B0014600208DF807000DF1070285
:101B0000682000F0A7F89DF8070002B080BD000033
:101B100080B50A460146682000F0A6F980BD0000A5
:101B200010B50446FFF7DCF82046FFF757F8FFF73B
:101B30008BF810BD80B51020FFF790F80220FFF75A
:101B4000C5F880BD00687047B0B50C460546FFF784
:101B5000C7F828462146FFF78DF8FFF775F8B0BDA6
:101B6000052907D820FA01F2920705D40139C840A7
:101B7000C00701D0002070470120704770B545F6BE
:101B800000040D46C4F20004014620462A46FFF731
:101B9000F3F940F2E006012DC2F2000614D0002D48
:101BA00018BF70BD82254FF47A70C0F207053080EF
:101BB00020462946FFF734F90028F9D03088411E25
:101BC00000283180F4D110E002254FF47A70C0F281
:101BD0000305308020462946FFF722F90028F9D076
:101BE0003088411E00283180F4D10020308070BD43
:101BF00010B586B04FF480000121FFF7F7F949F2E4
:101C0000E030C0F2040002900020CBF6FF70039099
:101C1000002045F6000404904FF48040C4F2000414
:101C2000ADF8140002A92046FFF73CF92046012137
:101C3000FFF702F908200121FFF7E4F940F6004020
:101C4000C1F60240019004F5344001A9FFF780F885
:101C500006B010BD70B514460D46064600F08EF86D
:101C60007000C6B230460021FFF788FF284600F01A
:101C7000D9F800F083F830460121FFF77FFF00F02C
:101C800057F8207000F0ACF870BD0000F0B581B0DE
:101C90001D4614460E46074600F070F87800C7B29D
:101CA00038460021FFF76AFF304600F0BBF800F02D
:101CB00065F838460121FFF761FF022DA5F1010605
:101CC00009D36D42671E00BF00F00CF80135691C96
:101CD00007F8010FF8D100F02BF8A05500F080F8BC
:101CE00001B0F0BD70B545F60004C4F20004204612
:101CF0000121FFF78BF840F2E0064025C2F2000612
:101D00004FF47A70C0F20305308000BF20462946A8
:101D1000FFF786F80028F9D03088411E002831806E
:101D2000F4D1002030802046FFF722F970BD00007A
:101D300070B545F60004C4F2000420460021FFF708
:101D400065F840F2E0064025C2F200064FF47A70D2
:101D5000C0F20305308000BF20462946FFF760F837
:101D60000028F9D03088411E00283180F4D10020AD
:101D700030802046FFF7FCF870BD000070B545F6D6
:101D8000000440F2E006C4F20004C2F200064FF480
:101D90007A70308020464FF40031FFF76BF800284E
:101DA000F8D13088411E00283180F3D100203080E6
:101DB00020460121FFF74AF801254FF47A70C0F25E
:101DC0000305308020462946FFF72AF80028F9D07D
:101DD0003088411E00283180F4D10020308070BD51
:101DE00070B545F60004C4F2000420460121FFF757
:101DF00037F840F2E0061025C2F200064FF47A7080
:101E0000C1F20005308000BF20462946FFF732F8B6
:101E10000028F9D13088411E00283180F4D10020FB
:101E2000308070BD70B545F60004C4F20004014670
:101E30002046FFF7A9F840F2E0068425C2F200062A
:101E40004FF47A70C0F20705308000BF2046294663
:101E5000FEF7E6FF0028F9D03088411E00283180C7
:101E6000F4D10020308070BD70B514460D46064692
:101E7000FFF784FF7000C0B20021FFF77FFE284605
:101E8000FFF7D0FF2046FFF7CDFFFFF7A9FF70BD9A
:101E9000F0B581B01C4615460E460746FFF76EFFAB
:101EA0007800C0B20021FFF769FE3046FFF7BAFFA5
:101EB00034B1013D15F8010FFFF7B4FF013CF9D132
:101EC000FFF78EFF01B0F0BD80B54FF60040C0F6C1
:101ED0000000FFF725FE80BD2DE9F0418846E9B1FD
:101EE000054640F2CE00C2F20000008800244742BE
:101EF00000F1006000F57C469FB13046FFF722FEFE
:101F000005EBC4014860301FFFF71CFE45F83400A4
:101F100001340837A045A6F10806EDD14046BDE8DA
:101F2000F0812046BDE8F08170B540F2CE06C2F2E5
:101F3000000631884FF600450446B1F5806FC0F6C3
:101F4000000504D32846FFF7EBFD002030803088E1
:101F500021682844FFF7F8FD308861682844043080
:101F6000FFF7F2FD30880830308070BDFFF70AF9C6
:101F7000FFF73CFDFFF73CFEFFF7DCFDFFF7A4FF9A
:101F8000FFF7B6FAFFF780FAFFF7E2F9FFF7DEF99D
:101F9000FFF7B4FAFFF74EFD00F00AF8F2E7000091
:101FA00040F2D400C2F2000000210170704700002E
:101FB0002DE9F04381B040F2E40540F2D80940F247
:101FC000DC074FF00008C2F20005C2F20009C2F2BD
:101FD0000007002404E000BF1034B4F5C07F13D024
:101FE0002E19B0680028F7D0FEF70AFF2959726849
:101FF000401A9042F0D3D6E90210C6F80880C9F81A
:10200000001038608847E7E701B0BDE8F0830000C2
:1020100010B584B0011D00F10C0200F1080300F1BD
:10202000100C00F1140E00F11804CDE900CE02945A
:10203000FEF728FD04B010BD10B592B000240BA827
:102040001194CDE90F44CDE90D44CDE90B44FFF7E0
:10205000DFFF11980BAB0090DDE90F10CDE9010116
:102060000FCB0139A0F26C700590581E03920491B9
:10207000CDE906044FF0FF300A94CDE90804684624
:10208000FEF761F9B0F1FF3108BF084612B010BD8C
:102090002DE9F04740F2E40A90460C4681464FF0A5
:1020A000FF370025C2F2000A0AEB0506B0680028D7
:1020B00018BFA04206D01035B5F5C07F07F1010763
:1020C000F2D118E0FEF79CFE4AF80500781C1628AD
:1020D000C6E90194C6F80C8088BFBDE8F08706F118
:1020E0001800002102680137A24208BF0160162FC4
:1020F00000F11000F6D3BDE8F0871F1D1F1E1F1E44
:102100001F1F1E1F1E1F0204060800000000000003
:102110000000010203040607080900000000010294
:102120000304010203040607080900005021000807
:1021300000000020080000002801000858210008C5
:1021400008000020600800004401000800000000B2
:0821500000A24A040000000097
:04000005080000ED02
:00000001FF
